:100000000C9449000C945B000C945B000C945B0016
:100010000C945B000C945B000C945B000C945B00F4
:100020000C945B000C945B000C945B000C945B00E4
:100030000C94E30E0C945B000C945B000C945B003E
:100040000C945B000C943B0D0C945B000C945B00D7
:100050000C945B000C945B000C945B000C945B00B4
:100060000C945B000C945B000C945B000C945B00A4
:100070000C945B000C945B000C945B00D101630258
:10008000ED026103A1031D049A043705DD05CB01D0
:10009000E60611241FBECFEFD8E0DEBFCDBF24E0BF
:1000A000A0E0B1E001C01D92A533B207E1F70E94C4
:1000B0004D0D0C94D0100C94000082E080937C00D5
:1000C00082EE80937A0080EA80937B00089521ED90
:1000D00031E03093BD032093BC031092C00370E065
:1000E0007093B8036093B70322E02093B60328E02F
:1000F0002093BB0324E02093F002DC01E1EDF1E06A
:1001000089ED91E02D912193E817F907D9F76091D6
:10011000F00285EB93E00E9487018111F8CF609196
:10012000F00285EB93E00E94B3078130C1F308959C
:1001300089EA92E09093BD038093BC031092C003C0
:100140008091C00290E09093B8038093B70385E05C
:100150008093B60388E08093BB031092F002609115
:10016000F00285EB93E00E9487018111F8CF85EBC7
:1001700091E09093BD038093BC031092C0038091E3
:10018000C10290E09093B8038093B70385E0809319
:10019000B60388E08093BB0381E08093F002609116
:1001A000F00285EB93E00E9487018111F8CF8DEB7F
:1001B00091E09093BD038093BC031092C0038091A3
:1001C000C20290E09093B8038093B70385E08093D8
:1001D000B60388E08093BB0382E08093F0026091D5
:1001E000F00285EB93E00E9487018111F8CF88EC43
:1001F00092E09093BD038093BC031092C003809162
:10020000C30290E09093B8038093B70385E0809396
:10021000B60388E08093BB0383E08093F002609193
:10022000F00285EB93E00E9487018111F8CF84EE04
:1002300092E09093BD038093BC031092C003809121
:10024000C50290E09093B8038093B70385E0809354
:10025000B60398E09093BB038093F0026091F002A4
:1002600085EB93E00E9487018111F8CF089580E02B
:10027000ADEEB0E03EEE20E0982F9295907F9C93FB
:10028000E32FF22F1192E83FF105E1F78F5F8630FF
:1002900099F708958091EF00807C61F08091EE00E5
:1002A000982F907E282F2076203231F0903431F034
:1002B0008F7108958FEF0895892F0895892F0895DC
:1002C000FC0180E0AAEFB0E09C9191938F5F8830B1
:1002D000D9F7089581E08093D80082E08093E2000E
:1002E0008CE08093E30087E38093E40081E008954D
:1002F0000E946A01882349F00E943701E8EDF0E08E
:1003000080818260808381E0089580E00895CF93AA
:10031000DF931F92CDB7DEB7DC0111968C91119758
:100320008C30B1F419968C911997803669F4862F28
:100330008295807F8093ED00EFEEF0E080818F73F7
:1003400080831092EE006C9319961C9280E007C691
:10035000862F8295807F8093ED008091EF00807CD6
:1003600009F0F9C580E619968C9319976C93EEEE17
:10037000F0E01192E83FF105E1F711964C911197E9
:1003800050E0FA013197EB30F10508F0E0C5E25C8E
:10039000FF4F0C94CA1016968C9116978111B7C412
:1003A000C8C41B968C911B978823D9F114969C91F5
:1003B000149792959695977015968C911597880F2E
:1003C000880F880F890F8093F30013969C911397E1
:1003D00092959695977014968C911497880F880F24
:1003E000880F890F8093F20012969C911297929534
:1003F0009695977013968C911397880F880F880F96
:10040000890F8093F10012968C911297880F880FB4
:10041000880F8093F000EFEEF0E0808180618083B0
:100420001CC012968C911297869586958695139688
:100430009C91139720E2929F800D11248093F300EA
:1004400012968C9112978295880F807E8093F2008D
:10045000EFEEF0E080818F7E808316968C91169768
:10046000882391F020E08AEF90E01796ED91FC91BF
:100470001897E20FF11D3081FC0130832F5F169633
:100480003C911697231788F31A968C911A97882314
:1004900031F0E0EFF0E080818460808305C0E0EF20
:1004A000F0E080818B7F8083EFEEF0E09081169604
:1004B0008C91892B808380818F738083808180647D
:1004C000808380E04CC51B968C911B978823D9F1C3
:1004D00014969C91149792959695977015968C9179
:1004E0001597880F880F880F890F8093F300139654
:1004F0009C91139792959695977014968C9114975A
:10050000880F880F880F890F8093F20012969C91B4
:10051000129792959695977013968C911397880FD2
:10052000880F880F890F8093F10012968C91129793
:10053000880F880F880F8093F000EFEEF0E0808145
:10054000806180831CC012968C9112978695869547
:10055000869513969C911397F0E29F9F800D11242E
:100560008093F30012968C9112978295880F807E6B
:100570008093F200EFEEF0E080818F7E808316960C
:100580008C911697882391F020E08AEF90E01796DF
:10059000ED91FC911897E20FF11D3081FC01308341
:1005A0002F5F16963C911697231788F31A961C9284
:1005B0001A97E0EFF0E080818B7F8083EFEEF0E030
:1005C000908116968C91892B808380818F73808394
:1005D00080818064808380E0C2C41B968C911B97CD
:1005E0008823D9F114969C911497929596959770BB
:1005F00015968C911597880F880F880F890F809317
:10060000F30013969C911397929596959770149674
:100610008C911497880F880F880F890F8093F200B0
:1006200012969C91129792959695977013968C912D
:100630001397880F880F880F890F8093F100129607
:100640008C911297880F880F880F8093F000EFEE3F
:10065000F0E08081806180831CC012968C9112979B
:1006600086958695869513969C911397F0E29F9FA9
:10067000800D11248093F30012968C91129782952D
:10068000880F807E8093F200EFEEF0E080818F7E15
:10069000808381E01A968C931A97E0EFF0E08081D6
:1006A00084608083EFEEF0E0908116968C91892B28
:1006B000808380818F73808380818064808380E0E9
:1006C0004EC419829B819295969597708C81880F64
:1006D000880F880F890F8093F7009A8192959695DD
:1006E00097708B81880F880F880F890F8093F60091
:1006F00099819295969597708A81880F880F880FB7
:10070000890F8093F5002981220F220F220F84EF99
:1007100090E0FC012083EFEEF0E0308116962C9102
:10072000232B2083DC012C912B7F2C932C912E7F6B
:100730002C9380818F73808380818068808380E0A8
:100740000EC48FEF89838A818295880F807E815EB7
:1007500027EF30E0F901808349814295440F407EC4
:1007600086EF90E0FC01408312964C9112974695DB
:100770004695469513965C911397F0E25F9F400D66
:1007800011244093F30012964C9112974295440F16
:10079000407E4093F2006FEE70E0FB0140814F7E9F
:1007A000408319825B815295569557704C81440F56
:1007B000440F440F450FF90140833A813295369535
:1007C00037702B81220F220F220F230FFC01208371
:1007D00099819295969597708A81880F880F880FD6
:1007E000890F8093F5002981220F220F220F84EFB9
:1007F00090E0FC012083FB01308116962C91169726
:10080000232B20831A961C92DC012C9124602C93BC
:10081000A0EFB0E02C912B7F2C9320812F7E2083A2
:10082000FC0120812E7F2083DB018C918F738C93C0
:100830008C9180688C9380E092C38FEF89838A814A
:100840008295880F807E815E27EF30E0F9018083FA
:1008500049814295440F407E86EF90E0FC01408341
:1008600012964C91129746954695469513965C9133
:100870001397F0E25F9F400D11244093F30012960E
:100880004C9112974295440F407E4093F2006FEED8
:1008900070E0FB0140814F7E408319825B8152955D
:1008A000569557704C81440F440F440F450FF90182
:1008B00040833A813295369537702B81220F220F73
:1008C000220F230FFC0120839981929596959770B2
:1008D0008A81880F880F880F890F8093F5002981FE
:1008E000220F220F220F84EF90E0FC012083FB01F6
:1008F000308116962C911697232B208321E01A968F
:100900002C93DC012C9124602C93A0EFB0E02C916F
:1009100024602C9320812F7D2083FC0120812E7F59
:100920002083DB018C918F738C938C9180688C93E6
:1009300080E015C31B968C911B978823D9F11496E0
:100940009C91149792959695977015968C91159702
:10095000880F880F880F890F8093F30013969C915E
:10096000139792959695977014968C911497880F7B
:10097000880F880F890F8093F20012969C9112972E
:1009800092959695977013968C911397880F880F70
:10099000880F890F8093F10012968C911297880F1F
:1009A000880F880F8093F000EFEEF0E08081806187
:1009B00080831CC012968C91129786958695869599
:1009C00013969C911397E0E29E9F800D11248093D3
:1009D000F30012968C9112978295880F807E8093F7
:1009E000F200EFEEF0E080818F7E80838FEF8983CD
:1009F0009B819295969597708C81880F880F880FB0
:100A0000890F8093F7009A819295969597708B81C4
:100A1000880F880F880F890F8093F600998192952F
:100A2000969597708A81880F880F880F890F809319
:100A3000F5002981220F220F220F84EF90E0FC01A4
:100A40002083EFEEF0E0308116962C91232B20834B
:100A5000DC012C912B7F2C932C9121602C93808195
:100A60008F73808380818068808380E078C21B964A
:100A70008C911B978823D9F114969C911497929589
:100A80009695977015968C911597880F880F880FFB
:100A9000890F8093F30013969C91139792959695E6
:100AA000977014968C911497880F880F880F890F70
:100AB0008093F20012969C9112979295969597705A
:100AC00013968C911397880F880F880F890F809346
:100AD000F10012968C911297880F880F880F8093DF
:100AE000F000EFEEF0E08081806180831CC0129600
:100AF0008C91129786958695869513969C9113975F
:100B0000E0E29E9F800D11248093F30012968C9159
:100B100012978295880F807E8093F200EFEEF0E0CE
:100B200080818F7E80838FEF89839B8192959695BC
:100B300097708C81880F880F880F890F8093F7003A
:100B40009A819295969597708B81880F880F880F60
:100B5000890F8093F60099819295969597708A8176
:100B6000880F880F880F890F8093F5002981220F45
:100B7000220F220F84EF90E0FC012083EFEEF0E0E3
:100B8000308116962C911697232B20831A961C924F
:100B9000DC012C9124602C93A0EFB0E02C912B7FF2
:100BA0002C93DC012C9121602C9380818F738083A6
:100BB00080818068808380E0D2C11B968C911B97D6
:100BC0008823D9F114969C911497929596959770D5
:100BD00015968C911597880F880F880F890F809331
:100BE000F30013969C91139792959695977014968F
:100BF0008C911497880F880F880F890F8093F200CB
:100C000012969C91129792959695977013968C9147
:100C10001397880F880F880F890F8093F100129621
:100C20008C911297880F880F880F8093F000EFEE59
:100C3000F0E08081806180831CC012968C911297B5
:100C400086958695869513969C911397E0E29E9FD4
:100C5000800D11248093F30012968C911297829547
:100C6000880F807E8093F200EFEEF0E080818F7E2F
:100C700080838FEF89839B819295969597708C8165
:100C8000880F880F880F890F8093F7009A819295BB
:100C9000969597708B81880F880F880F890F8093A6
:100CA000F60099819295969597708A81880F880FA2
:100CB000880F890F8093F5002981220F220F220FC0
:100CC00084EF90E0FC012083EFEEF0E03081169697
:100CD0002C911697232B208321E01A962C93DC016C
:100CE0002C9124602C93A0EFB0E02C9124602C93E5
:100CF00020812F7D2083DC012C9121602C93808129
:100D00008F73808380818068808380E028C120E0A9
:100D10008AEF90E01796ED91FC911897E20FF11D84
:100D20003081FC0130832F5F16963C911697231774
:100D300088F319829B819295969597708C81880F84
:100D4000880F880F890F8093F7009A819295969566
:100D500097708B81880F880F880F890F8093F6001A
:100D600099819295969597708A81880F880F880F40
:100D7000890F8093F5002981220F220F220F84EF23
:100D800090E0FC012083EFEEF0E0308116962C918C
:100D90001697232B208321E01A962C93DC012C91AB
:100DA00024602C93A0EFB0E02C9124602C93208140
:100DB00020622083DC012C912E7F2C9380818F7305
:100DC000808380818068808380E0C9C01B968C917D
:100DD0001B978823D9F114969C9114979295969518
:100DE000977015968C911597880F880F880F890F2B
:100DF0008093F30013969C91139792959695977014
:100E000014968C911497880F880F880F890F809300
:100E1000F20012969C911297929596959770139660
:100E20008C911397880F880F880F890F8093F1009A
:100E300012968C911297880F880F880F8093F0007C
:100E4000EFEEF0E08081806180831CC012968C916F
:100E5000129786958695869513969C911397E0E256
:100E60009E9F800D11248093F30012968C9112970F
:100E70008295880F807E8093F200EFEEF0E0808113
:100E80008F7E808316968C911697882391F020E0B0
:100E90008AEF90E01796ED91FC911897E20FF11D03
:100EA0003081FC0130832F5F16963C9116972317F3
:100EB00088F38FEF89839B819295969597708C81AB
:100EC000880F880F880F890F8093F7009A81929579
:100ED000969597708B81880F880F880F890F809364
:100EE000F60099819295969597708A81880F880F60
:100EF000880F890F8093F5002981220F220F220F7E
:100F000084EF90E0FC012083EFEEF0E03081169654
:100F10002C911697232B208321E01A962C93DC0129
:100F20002C9124602C93A0EFB0E02C9124602C93A2
:100F3000208120622083DC012C9121602C93808110
:100F40008F73808380818068808380E008C01996D9
:100F50001C9280E004C08FE119968C938FEF0F9064
:100F6000DF91CF910895CF93DF93EC01898588239A
:100F700009F4D8C08F3109F4D7C08F3F09F4D6C027
:100F80006295607F6093ED000E944A01803261F0BB
:100F900020F4882309F4CCC0BBC0803409F4ADC070
:100FA000803A09F451C0B4C08DE10E94200E8091B6
:100FB000F00082FB882780F98A878091EF0084FF08
:100FC0002DC081E08B87E3EFF0E0808186958695E8
:100FD00086958D83A2EFB0E08C9190818695869561
:100FE000869520E2929F800D11248C83E1EFF0E042
:100FF00080819C9186958695869520E2929F800DB2
:1010000011248B838091F00090818695869586953A
:1010100020E2929F800D11248A8307C01B86E3EF94
:10102000F0E080818091F200808180E289878F8169
:1010300098850E946001EFEEF0E080818F738083DD
:101040001092EE0080E275C08091F00082FB88274C
:1010500080F98A878091EF0084FF2DC081E08B8723
:10106000E3EFF0E080818695869586958D83A2EFEB
:10107000B0E08C91908186958695869520E2929F2E
:10108000800D11248C83E1EFF0E080819C918695A6
:101090008695869520E2929F800D11248B83809106
:1010A000F000908186958695869520E2929F800D2E
:1010B00011248A8313C01B86E3EFF0E080818295C0
:1010C000869587708B838091F2009081990F990F9C
:1010D000990F829586958770890F8A8380EA898720
:1010E0008F8198850E946001EFEEF0E080818F7320
:1010F00080831092EE0080EA1CC080E48987EFEEC6
:10110000F0E080818F7380831092EE0080E411C044
:101110008987EFEEF0E080818F7380831092EE007C
:1011200082E007C082E005C082E003C082E001C027
:1011300081E0DF91CF9108958093CC0182E080938C
:10114000CB0183E18093CA01809107028093C9019A
:101150001092C8011092C7011092C6016093C50198
:1011600061E185EC91E00E946700089583E080933F
:10117000CC0182E08093CB0184E08093CA0180910E
:1011800007028093C90161E185EC91E00E9467004C
:1011900010920B02089584E08093CC0181E080934B
:1011A000CB01809107028093C9016EE085EC91E04C
:1011B0000E9467001092B10208950F931F93CF937E
:1011C000DF9300D0CDB7DEB71091FC010091FF0195
:1011D00002950F701092C8011092C7011092C601BB
:1011E0001092C5011A3071F4BE016E5F7F4FCE01BF
:1011F00001960E94C60E89818093C6018A818093E0
:10120000C5010EC0113029F48091DE028093C50122
:101210000EC0123029F48091DF028093C5010DC009
:10122000133029F480910A028093C50106C014305E
:1012300021F480910A018093C5010093CC011092A2
:10124000CB011093CA01809107028093C9016AE023
:1012500085EC91E00E9467001092D3020F900F90EE
:10126000DF91CF911F910F91089583E08093CC017E
:101270001092CB0182E08093CA0180910702809393
:10128000C9018091AE038093C5016AE085EC91E0CD
:101290000E9467001092AD0308959091A803E09119
:1012A000A503F0E080812091AC032093CC0122E0E3
:1012B0002093CB0126E02093CA01209107022093BE
:1012C000C9019093C8018093C50161E185EC91E06B
:1012D0000E946700109210020895809105012091EC
:1012E00002019091AC03E0910301F0E02083909320
:1012F000CC0192E09093CB0198E09093CA01909139
:1013000007029093C9018093C80181E08093C501D1
:1013100061E185EC91E00E9467001092E801089578
:101320002091EC012A3069F48091EA0190E0982F35
:1013300088273091E901832B9093CE018093CD01D2
:101340001EC0213069F48091EA0190E0982F88272F
:101350003091E901832B90930902809308021EC00B
:10136000223069F48091EA0190E0982F882730912B
:10137000E901832B90930A03809309031EC0233055
:1013800069F48091EA0190E0982F88273091E90173
:10139000832B9093B2018093B1011EC0243069F475
:1013A0008091EA0190E0982F88273091E901832B02
:1013B0009093A4038093A3031EC0253069F4809109
:1013C000EA0190E0982F88273091E901832B9093D0
:1013D0000602809305021EC0263069F48091EA015E
:1013E00090E0982F88273091E901832B9093E102B8
:1013F0008093E0021EC0213169F48091EA0190E0FF
:10140000982F88273091E901832B909309028093CC
:1014100008021EC0293069F48091EA0190E0982FFB
:1014200088273091E901832B9093B4018093B30115
:101430001EC02B3069F48091EA0190E0982F882734
:101440003091E901832B9093F7018093F6011EC040
:101450002C3069F48091EA0190E0982F8827309130
:10146000E901832B9093DA018093D9011EC02D30BE
:1014700069F48091EA0190E0982F88273091E90182
:10148000832B9093A8018093A7011EC02E3069F48E
:101490008091EA0190E0982F88272091E901822B22
:1014A0009093F4028093F3021DC02F3069F4809171
:1014B000EA0190E0982F88272091E901822B9093F0
:1014C000E7018093E6010EC0203161F48091EA01CA
:1014D00090E0982F88272091E901822B9093B30206
:1014E0008093B2021092D0020895209103032A3013
:1014F00069F48091010390E0982F882730910003D0
:10150000832B9093D0018093CF011EC0213069F4CA
:101510008091010390E0982F882730910003832B5E
:101520009093B5028093B4021EC0223069F480917A
:10153000010390E0982F882730910003832B90932C
:10154000E5018093E4011EC0233069F4809101031A
:1015500090E0982F882730910003832B9093B70257
:101560008093B6021EC0243069F48091010390E09C
:10157000982F882730910003832B9093C702809384
:10158000C6021EC0253069F48091010390E0982FB7
:10159000882730910003832B9093030280930202EB
:1015A0001EC0263069F48091010390E0982F8827AF
:1015B00030910003832B90930C0180930B011EC08C
:1015C000213169F48091010390E0982F88273091B0
:1015D0000003832B9093B5028093B4021EC0293080
:1015E00069F48091010390E0982F882730910003DF
:1015F000832B9093E3028093E2021EC02B3069F4A8
:101600008091010390E0982F882730910003832B6D
:1016100090930102809300021EC02C3069F48091E7
:10162000010390E0982F882730910003832B90933B
:10163000F2028093F1021EC02D3069F48091010303
:1016400090E0982F882730910003832B90930E0110
:1016500080930D011EC02E3069F48091010390E04B
:10166000982F882720910003822B90930F0280935C
:101670000E021DC02F3069F48091010390E0982F75
:10168000882720910003822B9093FF028093FE0213
:101690000EC0203161F48091010390E0982F8827DB
:1016A00020910003822B9093ED028093EC02109224
:1016B000D50208958091DF018F3F29F49091DC01DC
:1016C00090930C020EC08E3F29F48091DC01809330
:1016D00004020DC0803F29F48091DC018093F30166
:1016E00006C0813F21F48091DC018093DB011092E0
:1016F000D40208958091DD0282958F709091DA0274
:10170000292F30E060910001462F50E04F5F5F4F7E
:101710004217530794F46FEF0E949C081092000147
:1017200010920D021092F502E1E1F2E080EA92E0FF
:101730001192E817F907E1F708957091D202772323
:1017400051F06FEF0E949C081092000110920D0260
:101750001092F5020895911103C0662309F447C061
:101760002417350791F59093000141E04093F5026D
:10177000F901EE0FFF1FEE0FFF1FEF5EFD4F2091EF
:10178000D60220832091D70221832091D802228380
:101790002091D90223839332A9F410920001109270
:1017A000F50291E09093D202E1E1F2E0AFE0B1E026
:1017B00020EA32E091919D93E217F307D9F763E2B3
:1017C0000E949C0810920D0208956FEF0E949C08E1
:1017D000109200011092F50210920D02E1E1F2E088
:1017E00080EA92E01192E817F907E1F7089581E0A5
:1017F0008093F502F901EE0FFF1FEE0FFF1FEF5E62
:10180000FD4F8091D60280838091D70281838091A1
:10181000D80282838091D9028383D4CF8AE08093D7
:10182000CC0182E08093CB0181E18093CA01809159
:1018300007028093C90161E185EC91E00E94670095
:1018400008952F923F924F925F926F927F928F9264
:101850009F92AF92BF92CF92DF92EF92FF920F933F
:101860001F93CF93DF931092F5011092F4010E9421
:101870000E0C8091F40181110DC0CAEF03C0C1505C
:1018800009F486C08AE090E00E94FA0E8091F4018B
:101890008823A9F31092F4018091F5018F3F09F498
:1018A00077C00F2EFEE04F2EF3E05F2EF02D312C8F
:1018B000C5ECD1E00F2EF6ECAF2EF1E0BF2EF02DEF
:1018C0000F2EF7ECCF2EF1E0DF2EF02D0F2EF8ECDF
:1018D000EF2EF1E0FF2EF02D0CEC11E00F2EFAE0D0
:1018E0002F2EF02D0F2EFBEC8F2EF1E09F2EF02DE2
:1018F0000F2EFAEC6F2EF1E07F2EF02D08C084E061
:10190000480E511C8091F5018F3F09F441C0F2014E
:1019100033978081888331968081F5018083F2013D
:1019200031978081F6018083F2018081F701808305
:10193000F801208282E0F40180838EE0F30180834D
:10194000E9ECF1E0308261E1CE010E94670081E0C4
:1019500090E00E940C0F3394F6E23F12D0CF8091BA
:10196000F50181110CC0C4E602C0C15089F084E6C3
:1019700090E00E94FA0E8091F5018823B1F3833242
:1019800019F01092F50104C01092F5011092D102E5
:10199000DF91CF911F910F91FF90EF90DF90CF904B
:1019A000BF90AF909F908F907F906F905F904F907F
:1019B0003F902F9008958AE08093CC0182E080933D
:1019C000CB0186E18093CA01809107028093C9010F
:1019D0008091AC018093C8018091AB018093C701D5
:1019E0008091AA018093C6018091A9018093C501CD
:1019F00061E185EC91E00E946700089580910B02FF
:101A000081110E94B6088091B10281110E94CB0819
:101A10008091D30281110E94DD088091AD03811174
:101A20000E9435098091100281110E944D09809118
:101A3000E80181110E946D098091D00281110E94FC
:101A400090098091D50281110E94750A8091D4027B
:101A500081110E945A0B80910D0281110E947A0B14
:101A60008091D10281110E94210C8091010181118C
:101A70000E94DB0C08951F920F920FB60F92112453
:101A80000F900FBE0F901F90189516BC14BC85E0E8
:101A900085BD81E080936E000895CF93DF9300D0E1
:101AA00000D0CDB7DEB710920000E1E6F0E080E8AC
:101AB0008083108284E18093C00285E18093C1021B
:101AC00086E18093C20287E18093C30288E180931C
:101AD000C40289E18093C5020F2EF8EB8F2EF2E04D
:101AE0009F2EF02D0F2EF5ECAF2EF1E0BF2EF02D36
:101AF00005EA13E082E091E09C838B8368EF71E05C
:101B000049EE51E020E033E08CED91E0A6EDB2E04B
:101B1000E6EFF2E0FA83E9830F2EF9EACF2EF1E047
:101B2000DF2EF02D6894FF24F3F8F40111924F0199
:101B3000F50111925F01F80111928F01EB81FC8197
:101B40001192FC83EB83FB011192BF01FA01119208
:101B5000AF01F90111929F01FC011192CF011D9279
:101B6000E981FA811192FA83E983F60111926F01FA
:101B7000FA94D9F6E1E1F2E02BE033E04FE051E0F6
:101B800089EA92E01192D9011D929D01DA011D921C
:101B9000AD01E817F907B1F710920B021092B102EC
:101BA0001092D302109210021092E8011092D0020B
:101BB0001092D5021092D40210920D0210920001E0
:101BC0001092D2021092D1021092F5011092F401FB
:101BD0001092F502109201018EEF84B981E187B96C
:101BE00018B889E08AB981E08BB91DB81EB80E9487
:101BF000F20E0E945D0080E00E9478010E94980031
:101C00000E948D0E2FE088E190E00FB6F894A89521
:101C1000809360000FBE2093600078940E94F60FBE
:101C20000E94450D0E94BD0E8DE10E94200E0E9473
:101C3000C21084E690E00E940C0F0E94FE0CF7CFC9
:101C40008D3029F42BB190E292279BB90DC08E30D4
:101C500029F42BB190E492279BB90DC08F3021F469
:101C60009BB190589BB90EC0803129F425B194E006
:101C7000922795B90EC0813129F428B190E19227BD
:101C800098B90EC0823129F428B190E2922798B910
:101C90000EC0863129F428B190E4922798B90EC07D
:101CA000873129F425B198E0922795B90DC0883184
:101CB00029F425B190E1922795B90DC0893121F41D
:101CC00098B1905898B90EC08A3129F425B190E2A4
:101CD000922795B90DC08B3129F425B190E4922754
:101CE00095B90DC08C3121F495B1905895B90EC0BD
:101CF0008D3129F49BB181E089278BB908958E310C
:101D000029F498B181E0892788B90895803221F4B7
:101D10009BB182E089278BB9089585B78F7785BFFE
:101D200083E58CBD08958EBD0DB407FC04C089EE1B
:101D30008150F1F708958AE00E94220F8EB5089530
:101D400081E090E00E94FA0E0895CF935B988EBDDB
:101D50000DB407FC06C0C9EEC150F1F70E94A00EF9
:101D600009C087E00E94220F0E94A00E8AE00E9414
:101D7000220FCEB58C2FCF910895449A089581E01B
:101D800090E00E94FA0E0895449808950F931F93CF
:101D9000CF93DF938C01EB010E94C40E1EBC80E840
:101DA00090E00E940C0F8EB5F801808380E890E0EF
:101DB0000E940C0F8EB588830E94BD0EDF91CF91DB
:101DC0001F910F9108951F920F920FB60F92112439
:101DD0008F9381E08093B4038F910F900FBE0F908B
:101DE0001F90189510926F00109280008AE08093E7
:101DF000810008951092B40310928500109284001F
:101E0000909389008093880082E080936F00809196
:101E1000B4038823E1F308950F931F93CF93DF93C7
:101E20008C01009751F0C0E0D0E088EE93E00E9472
:101E3000FA0E2196C017D107C1F7DF91CF911F91FC
:101E40000F910895882321F090E09F5F9813FDCFB4
:101E50000895CF93C82F0E94BF0E80E88C0F0E9478
:101E6000930E81E090E00E94FA0E80E00E94930EB3
:101E7000C82F0E94A00E81E090E00E940C0F8C2FD2
:101E8000CF910895CF93DF93D82FC62F0E94BF0E16
:101E90008D2F0E94930E81E090E00E94FA0E8C2F0D
:101EA0000E94930E0E94A00E81E090E00E940C0F11
:101EB000DF91CF910895CF93C82F0E94BF0E8FEA74
:101EC0000E94930E81E090E00E94FA0E8C2F0E94F7
:101ED000930E81E090E00E94FA0E80E00E94930E43
:101EE000C82F0E94A00E81E090E00E940C0F8C2F62
:101EF000CF910895CF930E94A50EC82F81E090E066
:101F00000E94FA0E8C2FCF910895CF93DF93D82F94
:101F1000C62F8DE30E947A0F0E94BF0E8FE20E94AF
:101F2000930E81E090E00E94FA0E8D2F0E94930E96
:101F300081E090E00E94FA0E8C2F0E94930E0E9486
:101F4000A00E81E090E00E940C0FDF91CF910895E8
:101F50001F93CF93DF93C82FD62F142F0E94290FE2
:101F600011110CC0E1E0F0E0AF0102C0440F551FB9
:101F7000DA95E2F74095682F64230AC041E050E00B
:101F80009A0102C0220F331FDA95E2F7682F622B05
:101F90008C2F0E94420FDF91CF911F9108951F93C4
:101FA000CF93DF93C82FD62F142F0E945B0F1111F0
:101FB0000CC0E1E0F0E0AF0102C0440F551FDA951C
:101FC000E2F74095682F64230AC041E050E09A018F
:101FD00002C0220F331FDA95E2F7682F622B8C2F95
:101FE0000E94850FDF91CF911F91089525EB33E07B
:101FF00085E394E0F9014E2F421B4193E817F9075E
:10200000D1F70E94BF0E80E30E947A0F8AE30E94FC
:102010007A0F8BE30E947A0F60E082E10E94850FC5
:102020006FE583E10E94850F60E486E10E94850FE1
:102030006EE087E10E94850F63E089E10E94850FD1
:1020400063E38BE10E94850F67E18DE10E94850FBC
:1020500060E58FE10E94850F64E181E20E94850FB7
:102060006CEA82E20E94850F8DE30E947A0F6BE09A
:1020700088E00E94420F6DE083E10E94420F64E01D
:1020800086E20E94420F6BE088E00E94420F6CE102
:102090008CE00E94420F60E080E10E94420F64E009
:1020A00081E10E94420F65E083E10E94420F69EAEC
:1020B0008CE10E94420F6FEC8DE10E94420F60E0C4
:1020C0008EE10E94420F63E080E20E94420F60E0D6
:1020D0008EE20E94420F60E080E00E94850F68E47B
:1020E0008AE00E94420F65E08BE00E94420F6BE1A4
:1020F00081E20E94420F60E08DE00E94420F40E0CA
:1021000065E08EE00E94A80F40E067E082E00E9458
:10211000CF0F40E066E082E00E94CF0F40E066E033
:1021200088E00E94A80F67E189E00E94420F60E00A
:1021300086E20E94420F6FEF8EE20E94420F60E43F
:1021400088E20E94420F8DE30E947A0F65E68CE0E0
:102150000E94850F60E48DE00E94850F83E30E945A
:102160007A0F8AEF90E00E940C0F87E30E947A0FAB
:102170008AEF90E00E940C0F1092AD0384E30E945E
:102180007A0F089562E182E10E94420F82E10E948B
:10219000290F0895EE0FFF1F0590F491E02D09948B
:0421A000F894FFCFE1
:00000001FF
